{
    "abi": [
        {
            "type": "constructor",
            "inputs": [
                {
                    "name": "_lendingToken",
                    "type": "address",
                    "internalType": "address"
                },
                {
                    "name": "_collateralToken",
                    "type": "address",
                    "internalType": "address"
                }
            ],
            "stateMutability": "nonpayable"
        },
        {
            "type": "function",
            "name": "availableToLend",
            "inputs": [],
            "outputs": [
                {
                    "name": "bal",
                    "type": "uint256",
                    "internalType": "uint256"
                }
            ],
            "stateMutability": "view"
        },
        {
            "type": "function",
            "name": "borrow",
            "inputs": [
                {
                    "name": "amount",
                    "type": "uint256",
                    "internalType": "uint256"
                }
            ],
            "outputs": [],
            "stateMutability": "nonpayable"
        },
        {
            "type": "function",
            "name": "collateralNeeded",
            "inputs": [
                {
                    "name": "desiredLoanAmount",
                    "type": "uint256",
                    "internalType": "uint256"
                }
            ],
            "outputs": [
                {
                    "name": "",
                    "type": "uint256",
                    "internalType": "uint256"
                }
            ],
            "stateMutability": "view"
        },
        {
            "type": "function",
            "name": "collateralToken",
            "inputs": [],
            "outputs": [
                {
                    "name": "",
                    "type": "address",
                    "internalType": "contract IERC20"
                }
            ],
            "stateMutability": "view"
        },
        {
            "type": "function",
            "name": "getCurrentCollateralPrice",
            "inputs": [],
            "outputs": [
                {
                    "name": "",
                    "type": "uint256",
                    "internalType": "uint256"
                }
            ],
            "stateMutability": "view"
        },
        {
            "type": "function",
            "name": "isActiveLoan",
            "inputs": [
                {
                    "name": "borrower",
                    "type": "address",
                    "internalType": "address"
                }
            ],
            "outputs": [
                {
                    "name": "",
                    "type": "bool",
                    "internalType": "bool"
                }
            ],
            "stateMutability": "view"
        },
        {
            "type": "function",
            "name": "lendingToken",
            "inputs": [],
            "outputs": [
                {
                    "name": "",
                    "type": "address",
                    "internalType": "contract IERC20"
                }
            ],
            "stateMutability": "view"
        },
        {
            "type": "function",
            "name": "liquidateLoan",
            "inputs": [
                {
                    "name": "borrower",
                    "type": "address",
                    "internalType": "address"
                }
            ],
            "outputs": [],
            "stateMutability": "nonpayable"
        },
        {
            "type": "function",
            "name": "loanInformation",
            "inputs": [
                {
                    "name": "borrower",
                    "type": "address",
                    "internalType": "address"
                }
            ],
            "outputs": [
                {
                    "name": "collatValue",
                    "type": "uint256",
                    "internalType": "uint256"
                },
                {
                    "name": "loanValue",
                    "type": "uint256",
                    "internalType": "uint256"
                },
                {
                    "name": "isHealthy",
                    "type": "bool",
                    "internalType": "bool"
                }
            ],
            "stateMutability": "view"
        },
        {
            "type": "function",
            "name": "loans",
            "inputs": [
                {
                    "name": "",
                    "type": "address",
                    "internalType": "address"
                }
            ],
            "outputs": [
                {
                    "name": "borrowed",
                    "type": "uint256",
                    "internalType": "uint256"
                },
                {
                    "name": "collateral",
                    "type": "uint256",
                    "internalType": "uint256"
                }
            ],
            "stateMutability": "view"
        },
        {
            "type": "function",
            "name": "repayLoan",
            "inputs": [
                {
                    "name": "amount",
                    "type": "uint256",
                    "internalType": "uint256"
                }
            ],
            "outputs": [],
            "stateMutability": "nonpayable"
        },
        {
            "type": "function",
            "name": "setPrice",
            "inputs": [
                {
                    "name": "_price",
                    "type": "uint256",
                    "internalType": "uint256"
                }
            ],
            "outputs": [],
            "stateMutability": "nonpayable"
        },
        {
            "type": "function",
            "name": "supplyCollateral",
            "inputs": [
                {
                    "name": "amount",
                    "type": "uint256",
                    "internalType": "uint256"
                }
            ],
            "outputs": [],
            "stateMutability": "nonpayable"
        },
        {
            "type": "function",
            "name": "supplyLendingToken",
            "inputs": [
                {
                    "name": "amount",
                    "type": "uint256",
                    "internalType": "uint256"
                }
            ],
            "outputs": [],
            "stateMutability": "nonpayable"
        },
        {
            "type": "function",
            "name": "withdrawCollateral",
            "inputs": [],
            "outputs": [],
            "stateMutability": "nonpayable"
        },
        {
            "type": "error",
            "name": "TransferError",
            "inputs": [
                {
                    "name": "",
                    "type": "string",
                    "internalType": "string"
                }
            ]
        }
    ],
    "bytecode": {
        "object": "0x60c060405234801561000f575f5ffd5b506040516127b23803806127b2833981810160405281019061003191906100fe565b8173ffffffffffffffffffffffffffffffffffffffff1660808173ffffffffffffffffffffffffffffffffffffffff16815250508073ffffffffffffffffffffffffffffffffffffffff1660a08173ffffffffffffffffffffffffffffffffffffffff1681525050505061013c565b5f5ffd5b5f73ffffffffffffffffffffffffffffffffffffffff82169050919050565b5f6100cd826100a4565b9050919050565b6100dd816100c3565b81146100e7575f5ffd5b50565b5f815190506100f8816100d4565b92915050565b5f5f60408385031215610114576101136100a0565b5b5f610121858286016100ea565b9250506020610132858286016100ea565b9150509250929050565b60805160a0516126086101aa5f395f81816103290152818161045c015281816106ce01528181610d6001528181610ebe015261117101525f818161098e01528181610af401528181610c07015281816110180152818161140a01528181611570015261164a01526126085ff3fe608060405234801561000f575f5ffd5b50600436106100f3575f3560e01c8063aaaca55811610095578063bbdfa00e11610064578063bbdfa00e14610270578063c5ebeaec1461028c578063e775eb4a146102a8578063ec453732146102c6576100f3565b8063aaaca558146101e8578063ab7b1c8914610206578063b2016bd414610222578063b79b8ff914610240576100f3565b806373b4086b116100d157806373b4086b1461014d57806379c2f1fc1461017e578063891c8c92146101b057806391b7f5ed146101cc576100f3565b8063367febea146100f7578063576b266a1461011357806359c153be14610143575b5f5ffd5b610111600480360381019061010c9190611722565b6102e4565b005b61012d60048036038101906101289190611722565b6105b7565b60405161013a919061175c565b60405180910390f35b61014b6105f0565b005b610167600480360381019061016291906117cf565b610827565b6040516101759291906117fa565b60405180910390f35b610198600480360381019061019391906117cf565b610846565b6040516101a79392919061183b565b60405180910390f35b6101ca60048036038101906101c59190611722565b610900565b005b6101e660048036038101906101e19190611722565b610ae8565b005b6101f0610af2565b6040516101fd91906118cb565b60405180910390f35b610220600480360381019061021b9190611722565b610b16565b005b61022a610ebc565b60405161023791906118cb565b60405180910390f35b61025a600480360381019061025591906117cf565b610ee0565b60405161026791906118e4565b60405180910390f35b61028a600480360381019061028591906117cf565b610f29565b005b6102a660048036038101906102a19190611722565b6112ce565b005b6102b0611564565b6040516102bd919061175c565b60405180910390f35b6102ce61156d565b6040516102db919061175c565b60405180910390f35b5f8111610326576040517f08c379a000000000000000000000000000000000000000000000000000000000815260040161031d90611957565b60405180910390fd5b807f000000000000000000000000000000000000000000000000000000000000000073ffffffffffffffffffffffffffffffffffffffff166370a08231336040518263ffffffff1660e01b81526004016103809190611984565b602060405180830381865afa15801561039b573d5f5f3e3d5ffd5b505050506040513d601f19601f820116820180604052508101906103bf91906119b1565b1015610400576040517f08c379a00000000000000000000000000000000000000000000000000000000081526004016103f790611a26565b60405180910390fd5b5f5f5f3373ffffffffffffffffffffffffffffffffffffffff1673ffffffffffffffffffffffffffffffffffffffff1681526020019081526020015f20905081816001015f8282546104529190611a71565b925050819055505f7f000000000000000000000000000000000000000000000000000000000000000073ffffffffffffffffffffffffffffffffffffffff163330856040516024016104a693929190611aa4565b6040516020818303038152906040527f23b872dd000000000000000000000000000000000000000000000000000000007bffffffffffffffffffffffffffffffffffffffffffffffffffffffff19166020820180517bffffffffffffffffffffffffffffffffffffffffffffffffffffffff83818316178352505050506040516105309190611b2b565b5f604051808303815f865af19150503d805f8114610569576040519150601f19603f3d011682016040523d82523d5f602084013e61056e565b606091505b50509050806105b2576040517ff187abe80000000000000000000000000000000000000000000000000000000081526004016105a990611b8b565b60405180910390fd5b505050565b5f5f82036105c7575f90506105eb565b670b1a2bc2ec500000826001546105de9190611ba9565b6105e89190611c17565b90505b919050565b5f5f5f3373ffffffffffffffffffffffffffffffffffffffff1673ffffffffffffffffffffffffffffffffffffffff1681526020019081526020015f2090505f815f015414610674576040517f08c379a000000000000000000000000000000000000000000000000000000000815260040161066b90611cdd565b60405180910390fd5b5f8160010154116106ba576040517f08c379a00000000000000000000000000000000000000000000000000000000081526004016106b190611d45565b60405180910390fd5b5f816001015490505f82600101819055505f7f000000000000000000000000000000000000000000000000000000000000000073ffffffffffffffffffffffffffffffffffffffff163383604051602401610716929190611d63565b6040516020818303038152906040527fa9059cbb000000000000000000000000000000000000000000000000000000007bffffffffffffffffffffffffffffffffffffffffffffffffffffffff19166020820180517bffffffffffffffffffffffffffffffffffffffffffffffffffffffff83818316178352505050506040516107a09190611b2b565b5f604051808303815f865af19150503d805f81146107d9576040519150601f19603f3d011682016040523d82523d5f602084013e6107de565b606091505b5050905080610822576040517ff187abe800000000000000000000000000000000000000000000000000000000815260040161081990611dd4565b60405180910390fd5b505050565b5f602052805f5260405f205f91509050805f0154908060010154905082565b5f5f5f5f5f8573ffffffffffffffffffffffffffffffffffffffff1673ffffffffffffffffffffffffffffffffffffffff1681526020019081526020015f205f015491505f5f8573ffffffffffffffffffffffffffffffffffffffff1673ffffffffffffffffffffffffffffffffffffffff1681526020019081526020015f206001015492505f6108d6836105b7565b90505f8114806108e65750808410155b156108f457600191506108f8565b5f91505b509193909250565b5f8111610942576040517f08c379a000000000000000000000000000000000000000000000000000000000815260040161093990611e3c565b60405180910390fd5b61094c338261160b565b61098b576040517f08c379a000000000000000000000000000000000000000000000000000000000815260040161098290611eca565b60405180910390fd5b5f7f000000000000000000000000000000000000000000000000000000000000000073ffffffffffffffffffffffffffffffffffffffff163330846040516024016109d893929190611aa4565b6040516020818303038152906040527f23b872dd000000000000000000000000000000000000000000000000000000007bffffffffffffffffffffffffffffffffffffffffffffffffffffffff19166020820180517bffffffffffffffffffffffffffffffffffffffffffffffffffffffff8381831617835250505050604051610a629190611b2b565b5f604051808303815f865af19150503d805f8114610a9b576040519150601f19603f3d011682016040523d82523d5f602084013e610aa0565b606091505b5050905080610ae4576040517ff187abe8000000000000000000000000000000000000000000000000000000008152600401610adb90611f7e565b60405180910390fd5b5050565b8060018190555050565b7f000000000000000000000000000000000000000000000000000000000000000081565b610b20338261160b565b610b5f576040517f08c379a0000000000000000000000000000000000000000000000000000000008152600401610b569061200c565b60405180910390fd5b5f5f5f3373ffffffffffffffffffffffffffffffffffffffff1673ffffffffffffffffffffffffffffffffffffffff1681526020019081526020015f209050805f0154821015610be4576040517f08c379a0000000000000000000000000000000000000000000000000000000008152600401610bdb9061209a565b60405180910390fd5b5f815f015490505f826001015490505f835f01819055505f83600101819055505f7f000000000000000000000000000000000000000000000000000000000000000073ffffffffffffffffffffffffffffffffffffffff16333085604051602401610c5193929190611aa4565b6040516020818303038152906040527f23b872dd000000000000000000000000000000000000000000000000000000007bffffffffffffffffffffffffffffffffffffffffffffffffffffffff19166020820180517bffffffffffffffffffffffffffffffffffffffffffffffffffffffff8381831617835250505050604051610cdb9190611b2b565b5f604051808303815f865af19150503d805f8114610d14576040519150601f19603f3d011682016040523d82523d5f602084013e610d19565b606091505b5050905080610d5d576040517ff187abe8000000000000000000000000000000000000000000000000000000008152600401610d5490612102565b60405180910390fd5b5f7f000000000000000000000000000000000000000000000000000000000000000073ffffffffffffffffffffffffffffffffffffffff163384604051602401610da8929190611d63565b6040516020818303038152906040527fa9059cbb000000000000000000000000000000000000000000000000000000007bffffffffffffffffffffffffffffffffffffffffffffffffffffffff19166020820180517bffffffffffffffffffffffffffffffffffffffffffffffffffffffff8381831617835250505050604051610e329190611b2b565b5f604051808303815f865af19150503d805f8114610e6b576040519150601f19603f3d011682016040523d82523d5f602084013e610e70565b606091505b5050905080610eb4576040517ff187abe8000000000000000000000000000000000000000000000000000000008152600401610eab9061216a565b60405180910390fd5b505050505050565b7f000000000000000000000000000000000000000000000000000000000000000081565b5f5f5f5f8473ffffffffffffffffffffffffffffffffffffffff1673ffffffffffffffffffffffffffffffffffffffff1681526020019081526020015f205f0154119050919050565b5f5f5f610f3584610846565b9250925092508015610f7c576040517f08c379a0000000000000000000000000000000000000000000000000000000008152600401610f73906121f8565b60405180910390fd5b610f86338361160b565b610fc5576040517f08c379a0000000000000000000000000000000000000000000000000000000008152600401610fbc90612286565b60405180910390fd5b5f5f5f8673ffffffffffffffffffffffffffffffffffffffff1673ffffffffffffffffffffffffffffffffffffffff1681526020019081526020015f2090505f815f01819055505f81600101819055505f7f000000000000000000000000000000000000000000000000000000000000000073ffffffffffffffffffffffffffffffffffffffff1633308660405160240161106293929190611aa4565b6040516020818303038152906040527f23b872dd000000000000000000000000000000000000000000000000000000007bffffffffffffffffffffffffffffffffffffffffffffffffffffffff19166020820180517bffffffffffffffffffffffffffffffffffffffffffffffffffffffff83818316178352505050506040516110ec9190611b2b565b5f604051808303815f865af19150503d805f8114611125576040519150601f19603f3d011682016040523d82523d5f602084013e61112a565b606091505b505090508061116e576040517ff187abe8000000000000000000000000000000000000000000000000000000008152600401611165906122ee565b60405180910390fd5b5f7f000000000000000000000000000000000000000000000000000000000000000073ffffffffffffffffffffffffffffffffffffffff1633876040516024016111b9929190611d63565b6040516020818303038152906040527fa9059cbb000000000000000000000000000000000000000000000000000000007bffffffffffffffffffffffffffffffffffffffffffffffffffffffff19166020820180517bffffffffffffffffffffffffffffffffffffffffffffffffffffffff83818316178352505050506040516112439190611b2b565b5f604051808303815f865af19150503d805f811461127c576040519150601f19603f3d011682016040523d82523d5f602084013e611281565b606091505b50509050806112c5576040517ff187abe80000000000000000000000000000000000000000000000000000000081526004016112bc9061237c565b60405180910390fd5b50505050505050565b6112d8308261160b565b611317576040517f08c379a000000000000000000000000000000000000000000000000000000000815260040161130e90612430565b60405180910390fd5b5f5f5f3373ffffffffffffffffffffffffffffffffffffffff1673ffffffffffffffffffffffffffffffffffffffff1681526020019081526020015f2090505f815f01541461139b576040517f08c379a0000000000000000000000000000000000000000000000000000000008152600401611392906124be565b60405180910390fd5b5f6113a5836105b7565b905080826001015410156113ee576040517f08c379a00000000000000000000000000000000000000000000000000000000081526004016113e59061254c565b60405180910390fd5b82825f015f8282546114009190611a71565b925050819055505f7f000000000000000000000000000000000000000000000000000000000000000073ffffffffffffffffffffffffffffffffffffffff163385604051602401611452929190611d63565b6040516020818303038152906040527fa9059cbb000000000000000000000000000000000000000000000000000000007bffffffffffffffffffffffffffffffffffffffffffffffffffffffff19166020820180517bffffffffffffffffffffffffffffffffffffffffffffffffffffffff83818316178352505050506040516114dc9190611b2b565b5f604051808303815f865af19150503d805f8114611515576040519150601f19603f3d011682016040523d82523d5f602084013e61151a565b606091505b505090508061155e576040517ff187abe8000000000000000000000000000000000000000000000000000000008152600401611555906125b4565b60405180910390fd5b50505050565b5f600154905090565b5f7f000000000000000000000000000000000000000000000000000000000000000073ffffffffffffffffffffffffffffffffffffffff166370a08231306040518263ffffffff1660e01b81526004016115c79190611984565b602060405180830381865afa1580156115e2573d5f5f3e3d5ffd5b505050506040513d601f19601f8201168201806040525081019061160691906119b1565b905090565b5f5f73ffffffffffffffffffffffffffffffffffffffff168373ffffffffffffffffffffffffffffffffffffffff1603611647575f90506116e5565b817f000000000000000000000000000000000000000000000000000000000000000073ffffffffffffffffffffffffffffffffffffffff166370a08231856040518263ffffffff1660e01b81526004016116a19190611984565b602060405180830381865afa1580156116bc573d5f5f3e3d5ffd5b505050506040513d601f19601f820116820180604052508101906116e091906119b1565b101590505b92915050565b5f5ffd5b5f819050919050565b611701816116ef565b811461170b575f5ffd5b50565b5f8135905061171c816116f8565b92915050565b5f60208284031215611737576117366116eb565b5b5f6117448482850161170e565b91505092915050565b611756816116ef565b82525050565b5f60208201905061176f5f83018461174d565b92915050565b5f73ffffffffffffffffffffffffffffffffffffffff82169050919050565b5f61179e82611775565b9050919050565b6117ae81611794565b81146117b8575f5ffd5b50565b5f813590506117c9816117a5565b92915050565b5f602082840312156117e4576117e36116eb565b5b5f6117f1848285016117bb565b91505092915050565b5f60408201905061180d5f83018561174d565b61181a602083018461174d565b9392505050565b5f8115159050919050565b61183581611821565b82525050565b5f60608201905061184e5f83018661174d565b61185b602083018561174d565b611868604083018461182c565b949350505050565b5f819050919050565b5f61189361188e61188984611775565b611870565b611775565b9050919050565b5f6118a482611879565b9050919050565b5f6118b58261189a565b9050919050565b6118c5816118ab565b82525050565b5f6020820190506118de5f8301846118bc565b92915050565b5f6020820190506118f75f83018461182c565b92915050565b5f82825260208201905092915050565b7f636f6c6c61746572616c20616d6f756e74206d757374206265203e20300000005f82015250565b5f611941601d836118fd565b915061194c8261190d565b602082019050919050565b5f6020820190508181035f83015261196e81611935565b9050919050565b61197e81611794565b82525050565b5f6020820190506119975f830184611975565b92915050565b5f815190506119ab816116f8565b92915050565b5f602082840312156119c6576119c56116eb565b5b5f6119d38482850161199d565b91505092915050565b7f696e737566666963656e7420636f6c6c61746572616c2062616c616e636500005f82015250565b5f611a10601e836118fd565b9150611a1b826119dc565b602082019050919050565b5f6020820190508181035f830152611a3d81611a04565b9050919050565b7f4e487b71000000000000000000000000000000000000000000000000000000005f52601160045260245ffd5b5f611a7b826116ef565b9150611a86836116ef565b9250828201905080821115611a9e57611a9d611a44565b5b92915050565b5f606082019050611ab75f830186611975565b611ac46020830185611975565b611ad1604083018461174d565b949350505050565b5f81519050919050565b5f81905092915050565b8281835e5f83830152505050565b5f611b0582611ad9565b611b0f8185611ae3565b9350611b1f818560208601611aed565b80840191505092915050565b5f611b368284611afb565b915081905092915050565b7f737570706c7920636f6c6c61746572616c2078666572000000000000000000005f82015250565b5f611b756016836118fd565b9150611b8082611b41565b602082019050919050565b5f6020820190508181035f830152611ba281611b69565b9050919050565b5f611bb3826116ef565b9150611bbe836116ef565b9250828202611bcc816116ef565b91508282048414831517611be357611be2611a44565b5b5092915050565b7f4e487b71000000000000000000000000000000000000000000000000000000005f52601260045260245ffd5b5f611c21826116ef565b9150611c2c836116ef565b925082611c3c57611c3b611bea565b5b828204905092915050565b7f63616e6e6f7420776974686472617720636f6c6c61746572616c207768696c655f8201527f20796f75206861766520616e206f75747374616e64696e67206c6f616e20626160208201527f6c616e6365000000000000000000000000000000000000000000000000000000604082015250565b5f611cc76045836118fd565b9150611cd282611c47565b606082019050919050565b5f6020820190508181035f830152611cf481611cbb565b9050919050565b7f6e6f20636f6c6c61746572616c20746f207769746864726177000000000000005f82015250565b5f611d2f6019836118fd565b9150611d3a82611cfb565b602082019050919050565b5f6020820190508181035f830152611d5c81611d23565b9050919050565b5f604082019050611d765f830185611975565b611d83602083018461174d565b9392505050565b7f77697468647261772078666572206572726f72000000000000000000000000005f82015250565b5f611dbe6013836118fd565b9150611dc982611d8a565b602082019050919050565b5f6020820190508181035f830152611deb81611db2565b9050919050565b7f6c656e64696e6720746f6b656e20616d6f756e74206d757374206265203e20305f82015250565b5f611e266020836118fd565b9150611e3182611df2565b602082019050919050565b5f6020820190508181035f830152611e5381611e1a565b9050919050565b7f496e73756666696369656e742062616c616e6365206f66206c656e64696e67205f8201527f746f6b656e000000000000000000000000000000000000000000000000000000602082015250565b5f611eb46025836118fd565b9150611ebf82611e5a565b604082019050919050565b5f6020820190508181035f830152611ee181611ea8565b9050919050565b7f737570706c79206c656e64696e6720746f6b656e2078666572206572726f722e5f8201527f206d616b65207375726520796f7520617070726f76656420746865206c656e6460208201527f696e6720636f6e74726163740000000000000000000000000000000000000000604082015250565b5f611f68604c836118fd565b9150611f7382611ee8565b606082019050919050565b5f6020820190508181035f830152611f9581611f5c565b9050919050565b7f496e73756666696369656e742062616c616e6365206f66206c656e64696e67205f8201527f746f6b656e7320746f20726570617920746865206c6f616e0000000000000000602082015250565b5f611ff66038836118fd565b915061200182611f9c565b604082019050919050565b5f6020820190508181035f83015261202381611fea565b9050919050565b7f496e73756666696369656e7420616d6f756e742073706563696669656420746f5f8201527f20706179206f666620746865206c6f616e000000000000000000000000000000602082015250565b5f6120846031836118fd565b915061208f8261202a565b604082019050919050565b5f6020820190508181035f8301526120b181612078565b9050919050565b7f7061796261636b2078666572206572726f7200000000000000000000000000005f82015250565b5f6120ec6012836118fd565b91506120f7826120b8565b602082019050919050565b5f6020820190508181035f830152612119816120e0565b9050919050565b7f726566756e6420636f6c6c61746572616c2078666572206572726f72000000005f82015250565b5f612154601c836118fd565b915061215f82612120565b602082019050919050565b5f6020820190508181035f83015261218181612148565b9050919050565b7f4c6f616e206973206865616c7468792e2043616e6e6f74206265206c697175695f8201527f6461746564000000000000000000000000000000000000000000000000000000602082015250565b5f6121e26025836118fd565b91506121ed82612188565b604082019050919050565b5f6020820190508181035f83015261220f816121d6565b9050919050565b7f496e73756666696369656e74206c656e64696e6720746f6b656e2062616c616e5f8201527f6365000000000000000000000000000000000000000000000000000000000000602082015250565b5f6122706022836118fd565b915061227b82612216565b604082019050919050565b5f6020820190508181035f83015261229d81612264565b9050919050565b7f6c69717569646174696f6e207061796261636b2078666572206572726f7200005f82015250565b5f6122d8601e836118fd565b91506122e3826122a4565b602082019050919050565b5f6020820190508181035f830152612305816122cc565b9050919050565b7f6c69717569646174696f6e20726566756e6420636f6c6c61746572616c2078665f8201527f6572206572726f72000000000000000000000000000000000000000000000000602082015250565b5f6123666028836118fd565b91506123718261230c565b604082019050919050565b5f6020820190508181035f8301526123938161235a565b9050919050565b7f546865206c656e64696e6720636f6e74726163742068617320616e20696e73755f8201527f6666696369656e742062616c616e6365206f66206c656e64696e6720746f6b6560208201527f6e73000000000000000000000000000000000000000000000000000000000000604082015250565b5f61241a6042836118fd565b91506124258261239a565b606082019050919050565b5f6020820190508181035f8301526124478161240e565b9050919050565b7f796f7520616c7265616479206861766520616e206f75747374616e64696e67205f8201527f6c6f616e00000000000000000000000000000000000000000000000000000000602082015250565b5f6124a86024836118fd565b91506124b38261244e565b604082019050919050565b5f6020820190508181035f8301526124d58161249c565b9050919050565b7f6e6f7420656e6f75676820636f6c6c61746572616c2070726f7669646564202d5f8201527f20796f75206d75737420737570706c7920636f6c6c61746572616c0000000000602082015250565b5f612536603b836118fd565b9150612541826124dc565b604082019050919050565b5f6020820190508181035f8301526125638161252a565b9050919050565b7f626f72726f77696e672078666572206572726f720000000000000000000000005f82015250565b5f61259e6014836118fd565b91506125a98261256a565b602082019050919050565b5f6020820190508181035f8301526125cb81612592565b905091905056fea264697066735822122085a7616aa39c0fb9ab19ca053ab7281292dd1d75369fc5d0a1b49456d0d3275c64736f6c634300081e0033",
        "linkReferences": {}
    },
    "methodIdentifiers": {
        "availableToLend()": "ec453732",
        "borrow(uint256)": "c5ebeaec",
        "collateralNeeded(uint256)": "576b266a",
        "collateralToken()": "b2016bd4",
        "getCurrentCollateralPrice()": "e775eb4a",
        "isActiveLoan(address)": "b79b8ff9",
        "lendingToken()": "aaaca558",
        "liquidateLoan(address)": "bbdfa00e",
        "loanInformation(address)": "79c2f1fc",
        "loans(address)": "73b4086b",
        "repayLoan(uint256)": "ab7b1c89",
        "setPrice(uint256)": "91b7f5ed",
        "supplyCollateral(uint256)": "367febea",
        "supplyLendingToken(uint256)": "891c8c92",
        "withdrawCollateral()": "59c153be"
    },
    "id": 26
}